{
  "_format": "hh-sol-artifact-1",
  "contractName": "TheRainbowTribe",
  "sourceName": "contracts/TheRainbowTribe.sol",
  "abi": [
    {
      "inputs": [
        {
          "internalType": "string",
          "name": "_initBaseURI",
          "type": "string"
        }
      ],
      "stateMutability": "nonpayable",
      "type": "constructor"
    },
    {
      "inputs": [],
      "name": "ApprovalCallerNotOwnerNorApproved",
      "type": "error"
    },
    {
      "inputs": [],
      "name": "ApprovalQueryForNonexistentToken",
      "type": "error"
    },
    {
      "inputs": [],
      "name": "BalanceQueryForZeroAddress",
      "type": "error"
    },
    {
      "inputs": [],
      "name": "InsufficientFunds",
      "type": "error"
    },
    {
      "inputs": [],
      "name": "MintERC2309QuantityExceedsLimit",
      "type": "error"
    },
    {
      "inputs": [],
      "name": "MintToZeroAddress",
      "type": "error"
    },
    {
      "inputs": [],
      "name": "MintZeroQuantity",
      "type": "error"
    },
    {
      "inputs": [],
      "name": "OwnerQueryForNonexistentToken",
      "type": "error"
    },
    {
      "inputs": [],
      "name": "OwnershipNotInitializedForExtraData",
      "type": "error"
    },
    {
      "inputs": [],
      "name": "TransferCallerNotOwnerNorApproved",
      "type": "error"
    },
    {
      "inputs": [],
      "name": "TransferFromIncorrectOwner",
      "type": "error"
    },
    {
      "inputs": [],
      "name": "TransferToNonERC721ReceiverImplementer",
      "type": "error"
    },
    {
      "inputs": [],
      "name": "TransferToZeroAddress",
      "type": "error"
    },
    {
      "inputs": [],
      "name": "URIQueryForNonexistentToken",
      "type": "error"
    },
    {
      "anonymous": false,
      "inputs": [
        {
          "indexed": true,
          "internalType": "address",
          "name": "owner",
          "type": "address"
        },
        {
          "indexed": true,
          "internalType": "address",
          "name": "approved",
          "type": "address"
        },
        {
          "indexed": true,
          "internalType": "uint256",
          "name": "tokenId",
          "type": "uint256"
        }
      ],
      "name": "Approval",
      "type": "event"
    },
    {
      "anonymous": false,
      "inputs": [
        {
          "indexed": true,
          "internalType": "address",
          "name": "owner",
          "type": "address"
        },
        {
          "indexed": true,
          "internalType": "address",
          "name": "operator",
          "type": "address"
        },
        {
          "indexed": false,
          "internalType": "bool",
          "name": "approved",
          "type": "bool"
        }
      ],
      "name": "ApprovalForAll",
      "type": "event"
    },
    {
      "anonymous": false,
      "inputs": [
        {
          "indexed": true,
          "internalType": "uint256",
          "name": "fromTokenId",
          "type": "uint256"
        },
        {
          "indexed": false,
          "internalType": "uint256",
          "name": "toTokenId",
          "type": "uint256"
        },
        {
          "indexed": true,
          "internalType": "address",
          "name": "from",
          "type": "address"
        },
        {
          "indexed": true,
          "internalType": "address",
          "name": "to",
          "type": "address"
        }
      ],
      "name": "ConsecutiveTransfer",
      "type": "event"
    },
    {
      "anonymous": false,
      "inputs": [
        {
          "indexed": true,
          "internalType": "address",
          "name": "previousOwner",
          "type": "address"
        },
        {
          "indexed": true,
          "internalType": "address",
          "name": "newOwner",
          "type": "address"
        }
      ],
      "name": "OwnershipTransferred",
      "type": "event"
    },
    {
      "anonymous": false,
      "inputs": [
        {
          "indexed": true,
          "internalType": "address",
          "name": "from",
          "type": "address"
        },
        {
          "indexed": true,
          "internalType": "address",
          "name": "to",
          "type": "address"
        },
        {
          "indexed": true,
          "internalType": "uint256",
          "name": "tokenId",
          "type": "uint256"
        }
      ],
      "name": "Transfer",
      "type": "event"
    },
    {
      "inputs": [],
      "name": "MaxperTxWL",
      "outputs": [
        {
          "internalType": "uint256",
          "name": "",
          "type": "uint256"
        }
      ],
      "stateMutability": "view",
      "type": "function"
    },
    {
      "inputs": [],
      "name": "MaxperWallet",
      "outputs": [
        {
          "internalType": "uint256",
          "name": "",
          "type": "uint256"
        }
      ],
      "stateMutability": "view",
      "type": "function"
    },
    {
      "inputs": [],
      "name": "MaxperWalletWL",
      "outputs": [
        {
          "internalType": "uint256",
          "name": "",
          "type": "uint256"
        }
      ],
      "stateMutability": "view",
      "type": "function"
    },
    {
      "inputs": [
        {
          "internalType": "uint256",
          "name": "tokens",
          "type": "uint256"
        },
        {
          "internalType": "bytes32[]",
          "name": "merkleProof",
          "type": "bytes32[]"
        }
      ],
      "name": "WLMint",
      "outputs": [],
      "stateMutability": "payable",
      "type": "function"
    },
    {
      "inputs": [
        {
          "internalType": "address",
          "name": "to",
          "type": "address"
        },
        {
          "internalType": "uint256",
          "name": "tokenId",
          "type": "uint256"
        }
      ],
      "name": "approve",
      "outputs": [],
      "stateMutability": "payable",
      "type": "function"
    },
    {
      "inputs": [
        {
          "internalType": "address",
          "name": "owner",
          "type": "address"
        }
      ],
      "name": "balanceOf",
      "outputs": [
        {
          "internalType": "uint256",
          "name": "",
          "type": "uint256"
        }
      ],
      "stateMutability": "view",
      "type": "function"
    },
    {
      "inputs": [],
      "name": "baseExtension",
      "outputs": [
        {
          "internalType": "string",
          "name": "",
          "type": "string"
        }
      ],
      "stateMutability": "view",
      "type": "function"
    },
    {
      "inputs": [],
      "name": "baseURI",
      "outputs": [
        {
          "internalType": "string",
          "name": "",
          "type": "string"
        }
      ],
      "stateMutability": "view",
      "type": "function"
    },
    {
      "inputs": [],
      "name": "cost",
      "outputs": [
        {
          "internalType": "uint256",
          "name": "",
          "type": "uint256"
        }
      ],
      "stateMutability": "view",
      "type": "function"
    },
    {
      "inputs": [],
      "name": "firstCost",
      "outputs": [
        {
          "internalType": "uint256",
          "name": "",
          "type": "uint256"
        }
      ],
      "stateMutability": "view",
      "type": "function"
    },
    {
      "inputs": [
        {
          "internalType": "uint256",
          "name": "tokenId",
          "type": "uint256"
        }
      ],
      "name": "getApproved",
      "outputs": [
        {
          "internalType": "address",
          "name": "",
          "type": "address"
        }
      ],
      "stateMutability": "view",
      "type": "function"
    },
    {
      "inputs": [
        {
          "internalType": "uint256",
          "name": "_mintAmount",
          "type": "uint256"
        },
        {
          "internalType": "address",
          "name": "destination",
          "type": "address"
        }
      ],
      "name": "gift",
      "outputs": [],
      "stateMutability": "nonpayable",
      "type": "function"
    },
    {
      "inputs": [
        {
          "internalType": "address",
          "name": "owner",
          "type": "address"
        },
        {
          "internalType": "address",
          "name": "operator",
          "type": "address"
        }
      ],
      "name": "isApprovedForAll",
      "outputs": [
        {
          "internalType": "bool",
          "name": "",
          "type": "bool"
        }
      ],
      "stateMutability": "view",
      "type": "function"
    },
    {
      "inputs": [],
      "name": "maxSupply",
      "outputs": [
        {
          "internalType": "uint256",
          "name": "",
          "type": "uint256"
        }
      ],
      "stateMutability": "view",
      "type": "function"
    },
    {
      "inputs": [],
      "name": "merkleRoot",
      "outputs": [
        {
          "internalType": "bytes32",
          "name": "",
          "type": "bytes32"
        }
      ],
      "stateMutability": "view",
      "type": "function"
    },
    {
      "inputs": [],
      "name": "name",
      "outputs": [
        {
          "internalType": "string",
          "name": "",
          "type": "string"
        }
      ],
      "stateMutability": "view",
      "type": "function"
    },
    {
      "inputs": [],
      "name": "notRevealedUri",
      "outputs": [
        {
          "internalType": "string",
          "name": "",
          "type": "string"
        }
      ],
      "stateMutability": "view",
      "type": "function"
    },
    {
      "inputs": [
        {
          "internalType": "address",
          "name": "owner",
          "type": "address"
        }
      ],
      "name": "numberMinted",
      "outputs": [
        {
          "internalType": "uint256",
          "name": "",
          "type": "uint256"
        }
      ],
      "stateMutability": "view",
      "type": "function"
    },
    {
      "inputs": [],
      "name": "owner",
      "outputs": [
        {
          "internalType": "address",
          "name": "",
          "type": "address"
        }
      ],
      "stateMutability": "view",
      "type": "function"
    },
    {
      "inputs": [
        {
          "internalType": "uint256",
          "name": "tokenId",
          "type": "uint256"
        }
      ],
      "name": "ownerOf",
      "outputs": [
        {
          "internalType": "address",
          "name": "",
          "type": "address"
        }
      ],
      "stateMutability": "view",
      "type": "function"
    },
    {
      "inputs": [
        {
          "internalType": "bool",
          "name": "_state",
          "type": "bool"
        }
      ],
      "name": "pause",
      "outputs": [],
      "stateMutability": "nonpayable",
      "type": "function"
    },
    {
      "inputs": [],
      "name": "paused",
      "outputs": [
        {
          "internalType": "bool",
          "name": "",
          "type": "bool"
        }
      ],
      "stateMutability": "view",
      "type": "function"
    },
    {
      "inputs": [],
      "name": "publicSale",
      "outputs": [
        {
          "internalType": "bool",
          "name": "",
          "type": "bool"
        }
      ],
      "stateMutability": "view",
      "type": "function"
    },
    {
      "inputs": [
        {
          "internalType": "uint256",
          "name": "tokens",
          "type": "uint256"
        }
      ],
      "name": "publicSaleMint",
      "outputs": [],
      "stateMutability": "payable",
      "type": "function"
    },
    {
      "inputs": [],
      "name": "renounceOwnership",
      "outputs": [],
      "stateMutability": "nonpayable",
      "type": "function"
    },
    {
      "inputs": [
        {
          "internalType": "bool",
          "name": "_state",
          "type": "bool"
        }
      ],
      "name": "reveal",
      "outputs": [],
      "stateMutability": "nonpayable",
      "type": "function"
    },
    {
      "inputs": [],
      "name": "revealed",
      "outputs": [
        {
          "internalType": "bool",
          "name": "",
          "type": "bool"
        }
      ],
      "stateMutability": "view",
      "type": "function"
    },
    {
      "inputs": [
        {
          "internalType": "address",
          "name": "from",
          "type": "address"
        },
        {
          "internalType": "address",
          "name": "to",
          "type": "address"
        },
        {
          "internalType": "uint256",
          "name": "tokenId",
          "type": "uint256"
        }
      ],
      "name": "safeTransferFrom",
      "outputs": [],
      "stateMutability": "payable",
      "type": "function"
    },
    {
      "inputs": [
        {
          "internalType": "address",
          "name": "from",
          "type": "address"
        },
        {
          "internalType": "address",
          "name": "to",
          "type": "address"
        },
        {
          "internalType": "uint256",
          "name": "tokenId",
          "type": "uint256"
        },
        {
          "internalType": "bytes",
          "name": "_data",
          "type": "bytes"
        }
      ],
      "name": "safeTransferFrom",
      "outputs": [],
      "stateMutability": "payable",
      "type": "function"
    },
    {
      "inputs": [
        {
          "internalType": "address",
          "name": "operator",
          "type": "address"
        },
        {
          "internalType": "bool",
          "name": "approved",
          "type": "bool"
        }
      ],
      "name": "setApprovalForAll",
      "outputs": [],
      "stateMutability": "nonpayable",
      "type": "function"
    },
    {
      "inputs": [
        {
          "internalType": "string",
          "name": "_newBaseExtension",
          "type": "string"
        }
      ],
      "name": "setBaseExtension",
      "outputs": [],
      "stateMutability": "nonpayable",
      "type": "function"
    },
    {
      "inputs": [
        {
          "internalType": "string",
          "name": "_newBaseURI",
          "type": "string"
        }
      ],
      "name": "setBaseURI",
      "outputs": [],
      "stateMutability": "nonpayable",
      "type": "function"
    },
    {
      "inputs": [
        {
          "internalType": "uint256",
          "name": "_newCost",
          "type": "uint256"
        }
      ],
      "name": "setCost",
      "outputs": [],
      "stateMutability": "nonpayable",
      "type": "function"
    },
    {
      "inputs": [
        {
          "internalType": "uint256",
          "name": "_limit",
          "type": "uint256"
        }
      ],
      "name": "setMaxPerWallet",
      "outputs": [],
      "stateMutability": "nonpayable",
      "type": "function"
    },
    {
      "inputs": [
        {
          "internalType": "uint256",
          "name": "_limit",
          "type": "uint256"
        }
      ],
      "name": "setMaxperWalletWL",
      "outputs": [],
      "stateMutability": "nonpayable",
      "type": "function"
    },
    {
      "inputs": [
        {
          "internalType": "uint256",
          "name": "_newsupply",
          "type": "uint256"
        }
      ],
      "name": "setMaxsupply",
      "outputs": [],
      "stateMutability": "nonpayable",
      "type": "function"
    },
    {
      "inputs": [
        {
          "internalType": "bytes32",
          "name": "_merkleRoot",
          "type": "bytes32"
        }
      ],
      "name": "setMerkleRoot",
      "outputs": [],
      "stateMutability": "nonpayable",
      "type": "function"
    },
    {
      "inputs": [
        {
          "internalType": "string",
          "name": "_notRevealedURI",
          "type": "string"
        }
      ],
      "name": "setNotRevealedURI",
      "outputs": [],
      "stateMutability": "nonpayable",
      "type": "function"
    },
    {
      "inputs": [
        {
          "internalType": "uint256",
          "name": "_newwlCost",
          "type": "uint256"
        }
      ],
      "name": "setWlCost",
      "outputs": [],
      "stateMutability": "nonpayable",
      "type": "function"
    },
    {
      "inputs": [
        {
          "internalType": "bytes4",
          "name": "interfaceId",
          "type": "bytes4"
        }
      ],
      "name": "supportsInterface",
      "outputs": [
        {
          "internalType": "bool",
          "name": "",
          "type": "bool"
        }
      ],
      "stateMutability": "view",
      "type": "function"
    },
    {
      "inputs": [],
      "name": "symbol",
      "outputs": [
        {
          "internalType": "string",
          "name": "",
          "type": "string"
        }
      ],
      "stateMutability": "view",
      "type": "function"
    },
    {
      "inputs": [
        {
          "internalType": "bool",
          "name": "_state",
          "type": "bool"
        }
      ],
      "name": "togglepublicSale",
      "outputs": [],
      "stateMutability": "nonpayable",
      "type": "function"
    },
    {
      "inputs": [
        {
          "internalType": "bool",
          "name": "_state",
          "type": "bool"
        }
      ],
      "name": "togglewlMint",
      "outputs": [],
      "stateMutability": "nonpayable",
      "type": "function"
    },
    {
      "inputs": [
        {
          "internalType": "uint256",
          "name": "tokenId",
          "type": "uint256"
        }
      ],
      "name": "tokenURI",
      "outputs": [
        {
          "internalType": "string",
          "name": "",
          "type": "string"
        }
      ],
      "stateMutability": "view",
      "type": "function"
    },
    {
      "inputs": [],
      "name": "totalSupply",
      "outputs": [
        {
          "internalType": "uint256",
          "name": "",
          "type": "uint256"
        }
      ],
      "stateMutability": "view",
      "type": "function"
    },
    {
      "inputs": [
        {
          "internalType": "address",
          "name": "from",
          "type": "address"
        },
        {
          "internalType": "address",
          "name": "to",
          "type": "address"
        },
        {
          "internalType": "uint256",
          "name": "tokenId",
          "type": "uint256"
        }
      ],
      "name": "transferFrom",
      "outputs": [],
      "stateMutability": "payable",
      "type": "function"
    },
    {
      "inputs": [
        {
          "internalType": "address",
          "name": "newOwner",
          "type": "address"
        }
      ],
      "name": "transferOwnership",
      "outputs": [],
      "stateMutability": "nonpayable",
      "type": "function"
    },
    {
      "inputs": [],
      "name": "withdraw",
      "outputs": [],
      "stateMutability": "payable",
      "type": "function"
    },
    {
      "inputs": [],
      "name": "wlCost",
      "outputs": [
        {
          "internalType": "uint256",
          "name": "",
          "type": "uint256"
        }
      ],
      "stateMutability": "view",
      "type": "function"
    },
    {
      "inputs": [],
      "name": "wlMint",
      "outputs": [
        {
          "internalType": "bool",
          "name": "",
          "type": "bool"
        }
      ],
      "stateMutability": "view",
      "type": "function"
    }
  ],
  "bytecode": "0x60c06040526005608081905264173539b7b760d91b60a09081526200002891600b919062000206565b506658d15e17628000600d8190556000600e819055600f91909155611a0a6010556005601181905560128190556013556014805463ffffffff1916620101001790556015553480156200007a57600080fd5b50604051620028a2380380620028a28339810160408190526200009d91620002c2565b6040805180820182526011815270546865205261696e626f7720547269626560781b60208083019182528351808501909452600384526215149560ea1b908401528151919291620000f19160029162000206565b5080516200010790600390602084019062000206565b50506000805550620001193362000130565b6001600955620001298162000182565b50620003db565b600880546001600160a01b038381166001600160a01b0319831681179093556040519116919082907f8be0079c531659141344cd1fd0a4f28419497f9722a3daafe3b4186f6b6457e090600090a35050565b6200018c620001a5565b8051620001a190600a90602084019062000206565b5050565b6008546001600160a01b03163314620002045760405162461bcd60e51b815260206004820181905260248201527f4f776e61626c653a2063616c6c6572206973206e6f7420746865206f776e6572604482015260640160405180910390fd5b565b82805462000214906200039e565b90600052602060002090601f01602090048101928262000238576000855562000283565b82601f106200025357805160ff191683800117855562000283565b8280016001018555821562000283579182015b828111156200028357825182559160200191906001019062000266565b506200029192915062000295565b5090565b5b8082111562000291576000815560010162000296565b634e487b7160e01b600052604160045260246000fd5b60006020808385031215620002d657600080fd5b82516001600160401b0380821115620002ee57600080fd5b818501915085601f8301126200030357600080fd5b815181811115620003185762000318620002ac565b604051601f8201601f19908116603f01168101908382118183101715620003435762000343620002ac565b8160405282815288868487010111156200035c57600080fd5b600093505b8284101562000380578484018601518185018701529285019262000361565b82841115620003925760008684830101525b98975050505050505050565b600181811c90821680620003b357607f821691505b60208210811415620003d557634e487b7160e01b600052602260045260246000fd5b50919050565b6124b780620003eb6000396000f3fe6080604052600436106102c95760003560e01c80637f9fa41111610175578063c87b56dd116100dc578063e5170b1611610095578063f12f6d5d1161006f578063f12f6d5d146107fa578063f2c4ce1e1461081a578063f2fde38b1461083a578063f3257cdd1461085a57600080fd5b8063e5170b161461077b578063e985e9c514610791578063f0539802146107da57600080fd5b8063c87b56dd146106cf578063d5abeb01146106ef578063d70a28d114610705578063da3ef23f1461071b578063dc33e6811461073b578063e268e4d31461075b57600080fd5b8063a6e566b11161012e578063a6e566b114610652578063aeeae3a614610668578063b3ab66b01461067e578063b88d4fde14610691578063bd7a1998146106a4578063c6682862146106ba57600080fd5b80637f9fa4111461059f57806383a076be146105bf5780638da5cb5b146105df578063940cd05b146105fd57806395d89b411461061d578063a22cb4651461063257600080fd5b806333bc1c5c1161023457806355f804b3116101ed5780636c0360eb116101c75780636c0360eb1461053557806370a082311461054a578063715018a61461056a5780637cb647591461057f57600080fd5b806355f804b3146104db5780635c975abb146104fb5780636352211e1461051557600080fd5b806333bc1c5c146104405780633ccfd60b1461046157806342842e0e1461046957806344a0d68a1461047c57806345c490c01461049c57806351830227146104bc57600080fd5b806313faede61161028657806313faede6146103a7578063149835a0146103cb57806318160ddd146103eb578063226fe1c01461040457806323b872dd146104175780632eb4a7ab1461042a57600080fd5b806301ffc9a7146102ce57806302329a291461030357806306fdde0314610325578063081812fc14610347578063081c8c441461037f578063095ea7b314610394575b600080fd5b3480156102da57600080fd5b506102ee6102e9366004611e2e565b61087a565b60405190151581526020015b60405180910390f35b34801561030f57600080fd5b5061032361031e366004611e60565b6108cc565b005b34801561033157600080fd5b5061033a6108e7565b6040516102fa9190611ed3565b34801561035357600080fd5b50610367610362366004611ee6565b610979565b6040516001600160a01b0390911681526020016102fa565b34801561038b57600080fd5b5061033a6109bd565b6103236103a2366004611f16565b610a4b565b3480156103b357600080fd5b506103bd600d5481565b6040519081526020016102fa565b3480156103d757600080fd5b506103236103e6366004611ee6565b610aeb565b3480156103f757600080fd5b50600154600054036103bd565b610323610412366004611f40565b610af8565b610323610425366004611fbf565b610e8e565b34801561043657600080fd5b506103bd60155481565b34801561044c57600080fd5b506014546102ee906301000000900460ff1681565b61032361101f565b610323610477366004611fbf565b6110ac565b34801561048857600080fd5b50610323610497366004611ee6565b6110cc565b3480156104a857600080fd5b506103236104b7366004611e60565b6110d9565b3480156104c857600080fd5b506014546102ee90610100900460ff1681565b3480156104e757600080fd5b506103236104f6366004612087565b6110fd565b34801561050757600080fd5b506014546102ee9060ff1681565b34801561052157600080fd5b50610367610530366004611ee6565b61111c565b34801561054157600080fd5b5061033a611127565b34801561055657600080fd5b506103bd6105653660046120d0565b611134565b34801561057657600080fd5b50610323611183565b34801561058b57600080fd5b5061032361059a366004611ee6565b611197565b3480156105ab57600080fd5b506014546102ee9062010000900460ff1681565b3480156105cb57600080fd5b506103236105da3660046120eb565b6111a4565b3480156105eb57600080fd5b506008546001600160a01b0316610367565b34801561060957600080fd5b50610323610618366004611e60565b61126b565b34801561062957600080fd5b5061033a61128d565b34801561063e57600080fd5b5061032361064d366004612117565b61129c565b34801561065e57600080fd5b506103bd60135481565b34801561067457600080fd5b506103bd60125481565b61032361068c366004611ee6565b611308565b61032361069f366004612141565b61156b565b3480156106b057600080fd5b506103bd60115481565b3480156106c657600080fd5b5061033a6115b5565b3480156106db57600080fd5b5061033a6106ea366004611ee6565b6115c2565b3480156106fb57600080fd5b506103bd60105481565b34801561071157600080fd5b506103bd600f5481565b34801561072757600080fd5b50610323610736366004612087565b611732565b34801561074757600080fd5b506103bd6107563660046120d0565b61174d565b34801561076757600080fd5b50610323610776366004611ee6565b611758565b34801561078757600080fd5b506103bd600e5481565b34801561079d57600080fd5b506102ee6107ac3660046121bd565b6001600160a01b03918216600090815260076020908152604080832093909416825291909152205460ff1690565b3480156107e657600080fd5b506103236107f5366004611ee6565b611765565b34801561080657600080fd5b50610323610815366004611ee6565b611772565b34801561082657600080fd5b50610323610835366004612087565b61177f565b34801561084657600080fd5b506103236108553660046120d0565b61179a565b34801561086657600080fd5b50610323610875366004611e60565b611813565b60006301ffc9a760e01b6001600160e01b0319831614806108ab57506380ac58cd60e01b6001600160e01b03198316145b806108c65750635b5e139f60e01b6001600160e01b03198316145b92915050565b6108d4611839565b6014805460ff1916911515919091179055565b6060600280546108f6906121e7565b80601f0160208091040260200160405190810160405280929190818152602001828054610922906121e7565b801561096f5780601f106109445761010080835404028352916020019161096f565b820191906000526020600020905b81548152906001019060200180831161095257829003601f168201915b5050505050905090565b600061098482611893565b6109a1576040516333d1c03960e21b815260040160405180910390fd5b506000908152600660205260409020546001600160a01b031690565b600c80546109ca906121e7565b80601f01602080910402602001604051908101604052809291908181526020018280546109f6906121e7565b8015610a435780601f10610a1857610100808354040283529160200191610a43565b820191906000526020600020905b815481529060010190602001808311610a2657829003601f168201915b505050505081565b6000610a568261111c565b9050336001600160a01b03821614610a8f57610a7281336107ac565b610a8f576040516367d9dca160e11b815260040160405180910390fd5b60008281526006602052604080822080546001600160a01b0319166001600160a01b0387811691821790925591518593918516917f8c5be1e5ebec7d5bd14f71427d1e84f3dd0314c0f7b2291e5b200ac8c7c3b92591a4505050565b610af3611839565b601055565b60026009541415610b245760405162461bcd60e51b8152600401610b1b90612222565b60405180910390fd5b600260095560145460ff1615610b765760405162461bcd60e51b81526020600482015260176024820152761bdbdc1cc818dbdb9d1c9858dd081a5cc81c185d5cd959604a1b6044820152606401610b1b565b60145462010000900460ff16610bce5760405162461bcd60e51b815260206004820152601960248201527f776c4d696e74204861736e2774207374617274656420796574000000000000006044820152606401610b1b565b610c43828280806020026020016040519081016040528093929190818152602001838360200280828437600092019190915250506015546040516bffffffffffffffffffffffff193360601b1660208201529092506034019050604051602081830303815290604052805190602001206118ba565b610c8f5760405162461bcd60e51b815260206004820152601860248201527f20596f7520617265206e6f742077686974656c697374656400000000000000006044820152606401610b1b565b6000610c9e6001546000540390565b905060125484610cd7610cae3390565b6001600160a01b03166000908152600560205260409081902054901c67ffffffffffffffff1690565b610ce1919061226f565b1115610d2f5760405162461bcd60e51b815260206004820152601b60248201527f4d6178204e4654205065722057616c6c657420657863656564656400000000006044820152606401610b1b565b60008411610d4f5760405162461bcd60e51b8152600401610b1b90612287565b601054610d5c858361226f565b1115610d975760405162461bcd60e51b815260206004820152600a60248201526915d94814dbdb191bdd5d60b21b6044820152606401610b1b565b601354841115610de95760405162461bcd60e51b815260206004820152601860248201527f6d6178206d696e742070657220547820657863656564656400000000000000006044820152606401610b1b565b600184610df533610cae565b610dff919061226f565b11158015610e19575083600e54610e1691906122be565b34105b15610e375760405163356680b760e01b815260040160405180910390fd5b600184610e4333610cae565b610e4d919061226f565b118015610e5b5750600f5434105b15610e795760405163356680b760e01b815260040160405180910390fd5b610e8333856118d0565b505060016009555050565b6000610e99826118ea565b9050836001600160a01b0316816001600160a01b031614610ecc5760405162a1148160e81b815260040160405180910390fd5b60008281526006602052604090208054338082146001600160a01b03881690911417610f1957610efc86336107ac565b610f1957604051632ce44b5f60e11b815260040160405180910390fd5b6001600160a01b038516610f4057604051633a954ecd60e21b815260040160405180910390fd5b8015610f4b57600082555b6001600160a01b038681166000908152600560205260408082208054600019019055918716808252919020805460010190554260a01b17600160e11b17600085815260046020526040902055600160e11b8316610fd65760018401600081815260046020526040902054610fd4576000548114610fd45760008181526004602052604090208490555b505b83856001600160a01b0316876001600160a01b03167fddf252ad1be2c89b69c2b068fc378daa952ba7f163c4a11628f55a4df523b3ef60405160405180910390a4505050505050565b611027611839565b6002600954141561104a5760405162461bcd60e51b8152600401610b1b90612222565b6002600955604051600090339047908381818185875af1925050503d8060008114611091576040519150601f19603f3d011682016040523d82523d6000602084013e611096565b606091505b50509050806110a457600080fd5b506001600955565b6110c78383836040518060200160405280600081525061156b565b505050565b6110d4611839565b600d55565b6110e1611839565b60148054911515620100000262ff000019909216919091179055565b611105611839565b805161111890600a906020840190611d7f565b5050565b60006108c6826118ea565b600a80546109ca906121e7565b60006001600160a01b03821661115d576040516323d3ad8160e21b815260040160405180910390fd5b506001600160a01b031660009081526005602052604090205467ffffffffffffffff1690565b61118b611839565b611195600061194b565b565b61119f611839565b601555565b6111ac611839565b600260095414156111cf5760405162461bcd60e51b8152600401610b1b90612222565b6002600955816111f15760405162461bcd60e51b8152600401610b1b90612287565b60006112006001546000540390565b601054909150611210848361226f565b11156112575760405162461bcd60e51b81526020600482015260166024820152751b585e08139195081b1a5b5a5d08195e18d95959195960521b6044820152606401610b1b565b61126182846118d0565b5050600160095550565b611273611839565b601480549115156101000261ff0019909216919091179055565b6060600380546108f6906121e7565b3360008181526007602090815260408083206001600160a01b03871680855290835292819020805460ff191686151590811790915590519081529192917f17307eab39ab6107e8899845ad3d59bd9653f200f220920489ca2b5937696c31910160405180910390a35050565b6002600954141561132b5760405162461bcd60e51b8152600401610b1b90612222565b600260095560145460ff161561137d5760405162461bcd60e51b81526020600482015260176024820152761bdbdc1cc818dbdb9d1c9858dd081a5cc81c185d5cd959604a1b6044820152606401610b1b565b6014546301000000900460ff166113d65760405162461bcd60e51b815260206004820152601760248201527f53616c65204861736e27742073746172746564207965740000000000000000006044820152606401610b1b565b60006113e56001546000540390565b9050600082116114075760405162461bcd60e51b8152600401610b1b90612287565b6011548211156114595760405162461bcd60e51b815260206004820152601b60248201527f6d6178206d696e7420616d6f756e7420545820657863656564656400000000006044820152606401610b1b565b601054611466838361226f565b11156114a15760405162461bcd60e51b815260206004820152600a60248201526915d94814dbdb191bdd5d60b21b6044820152606401610b1b565b601154826114ae33610cae565b6114b8919061226f565b11156115065760405162461bcd60e51b815260206004820152601c60248201527f204d6178204e4654205065722057616c6c6574206578636565646564000000006044820152606401610b1b565b81600d5461151491906122be565b3410156115585760405162461bcd60e51b8152602060048201526012602482015271696e73756666696369656e742066756e647360701b6044820152606401610b1b565b61156233836118d0565b50506001600955565b611576848484610e8e565b6001600160a01b0383163b156115af576115928484848461199d565b6115af576040516368d2bf6b60e11b815260040160405180910390fd5b50505050565b600b80546109ca906121e7565b60606115cd82611893565b6116325760405162461bcd60e51b815260206004820152603060248201527f455243373231414d657461646174613a2055524920717565727920666f72206e60448201526f37b732bc34b9ba32b73a103a37b5b2b760811b6064820152608401610b1b565b601454610100900460ff166116d357600c805461164e906121e7565b80601f016020809104026020016040519081016040528092919081815260200182805461167a906121e7565b80156116c75780601f1061169c576101008083540402835291602001916116c7565b820191906000526020600020905b8154815290600101906020018083116116aa57829003601f168201915b50505050509050919050565b60006116dd611a95565b905060008151116116fd576040518060200160405280600081525061172b565b8061170784611aa4565b600b60405160200161171b939291906122dd565b6040516020818303038152906040525b9392505050565b61173a611839565b805161111890600b906020840190611d7f565b60006108c682610cae565b611760611839565b601155565b61176d611839565b601255565b61177a611839565b600f55565b611787611839565b805161111890600c906020840190611d7f565b6117a2611839565b6001600160a01b0381166118075760405162461bcd60e51b815260206004820152602660248201527f4f776e61626c653a206e6577206f776e657220697320746865207a65726f206160448201526564647265737360d01b6064820152608401610b1b565b6118108161194b565b50565b61181b611839565b6014805491151563010000000263ff00000019909216919091179055565b6008546001600160a01b031633146111955760405162461bcd60e51b815260206004820181905260248201527f4f776e61626c653a2063616c6c6572206973206e6f7420746865206f776e65726044820152606401610b1b565b60008054821080156108c6575050600090815260046020526040902054600160e01b161590565b6000826118c78584611ba2565b14949350505050565b611118828260405180602001604052806000815250611bef565b60008160005481101561193257600081815260046020526040902054600160e01b8116611930575b8061172b575060001901600081815260046020526040902054611912565b505b604051636f96cda160e11b815260040160405180910390fd5b600880546001600160a01b038381166001600160a01b0319831681179093556040519116919082907f8be0079c531659141344cd1fd0a4f28419497f9722a3daafe3b4186f6b6457e090600090a35050565b604051630a85bd0160e11b81526000906001600160a01b0385169063150b7a02906119d29033908990889088906004016123a1565b602060405180830381600087803b1580156119ec57600080fd5b505af1925050508015611a1c575060408051601f3d908101601f19168201909252611a19918101906123de565b60015b611a77573d808015611a4a576040519150601f19603f3d011682016040523d82523d6000602084013e611a4f565b606091505b508051611a6f576040516368d2bf6b60e11b815260040160405180910390fd5b805181602001fd5b6001600160e01b031916630a85bd0160e11b1490505b949350505050565b6060600a80546108f6906121e7565b606081611ac85750506040805180820190915260018152600360fc1b602082015290565b8160005b8115611af25780611adc816123fb565b9150611aeb9050600a8361242c565b9150611acc565b60008167ffffffffffffffff811115611b0d57611b0d611ffb565b6040519080825280601f01601f191660200182016040528015611b37576020820181803683370190505b5090505b8415611a8d57611b4c600183612440565b9150611b59600a86612457565b611b6490603061226f565b60f81b818381518110611b7957611b7961246b565b60200101906001600160f81b031916908160001a905350611b9b600a8661242c565b9450611b3b565b600081815b8451811015611be757611bd382868381518110611bc657611bc661246b565b6020026020010151611c5c565b915080611bdf816123fb565b915050611ba7565b509392505050565b611bf98383611c88565b6001600160a01b0383163b156110c7576000548281035b611c23600086838060010194508661199d565b611c40576040516368d2bf6b60e11b815260040160405180910390fd5b818110611c10578160005414611c5557600080fd5b5050505050565b6000818310611c7857600082815260208490526040902061172b565b5060009182526020526040902090565b60005481611ca95760405163b562e8dd60e01b815260040160405180910390fd5b6001600160a01b03831660008181526005602090815260408083208054680100000000000000018802019055848352600490915281206001851460e11b4260a01b178317905582840190839083907fddf252ad1be2c89b69c2b068fc378daa952ba7f163c4a11628f55a4df523b3ef8180a4600183015b818114611d5857808360007fddf252ad1be2c89b69c2b068fc378daa952ba7f163c4a11628f55a4df523b3ef600080a4600101611d20565b5081611d7657604051622e076360e81b815260040160405180910390fd5b60005550505050565b828054611d8b906121e7565b90600052602060002090601f016020900481019282611dad5760008555611df3565b82601f10611dc657805160ff1916838001178555611df3565b82800160010185558215611df3579182015b82811115611df3578251825591602001919060010190611dd8565b50611dff929150611e03565b5090565b5b80821115611dff5760008155600101611e04565b6001600160e01b03198116811461181057600080fd5b600060208284031215611e4057600080fd5b813561172b81611e18565b80358015158114611e5b57600080fd5b919050565b600060208284031215611e7257600080fd5b61172b82611e4b565b60005b83811015611e96578181015183820152602001611e7e565b838111156115af5750506000910152565b60008151808452611ebf816020860160208601611e7b565b601f01601f19169290920160200192915050565b60208152600061172b6020830184611ea7565b600060208284031215611ef857600080fd5b5035919050565b80356001600160a01b0381168114611e5b57600080fd5b60008060408385031215611f2957600080fd5b611f3283611eff565b946020939093013593505050565b600080600060408486031215611f5557600080fd5b83359250602084013567ffffffffffffffff80821115611f7457600080fd5b818601915086601f830112611f8857600080fd5b813581811115611f9757600080fd5b8760208260051b8501011115611fac57600080fd5b6020830194508093505050509250925092565b600080600060608486031215611fd457600080fd5b611fdd84611eff565b9250611feb60208501611eff565b9150604084013590509250925092565b634e487b7160e01b600052604160045260246000fd5b600067ffffffffffffffff8084111561202c5761202c611ffb565b604051601f8501601f19908116603f0116810190828211818310171561205457612054611ffb565b8160405280935085815286868601111561206d57600080fd5b858560208301376000602087830101525050509392505050565b60006020828403121561209957600080fd5b813567ffffffffffffffff8111156120b057600080fd5b8201601f810184136120c157600080fd5b611a8d84823560208401612011565b6000602082840312156120e257600080fd5b61172b82611eff565b600080604083850312156120fe57600080fd5b8235915061210e60208401611eff565b90509250929050565b6000806040838503121561212a57600080fd5b61213383611eff565b915061210e60208401611e4b565b6000806000806080858703121561215757600080fd5b61216085611eff565b935061216e60208601611eff565b925060408501359150606085013567ffffffffffffffff81111561219157600080fd5b8501601f810187136121a257600080fd5b6121b187823560208401612011565b91505092959194509250565b600080604083850312156121d057600080fd5b6121d983611eff565b915061210e60208401611eff565b600181811c908216806121fb57607f821691505b6020821081141561221c57634e487b7160e01b600052602260045260246000fd5b50919050565b6020808252601f908201527f5265656e7472616e637947756172643a207265656e7472616e742063616c6c00604082015260600190565b634e487b7160e01b600052601160045260246000fd5b6000821982111561228257612282612259565b500190565b6020808252601b908201527f6e65656420746f206d696e74206174206c656173742031204e46540000000000604082015260600190565b60008160001904831182151516156122d8576122d8612259565b500290565b6000845160206122f08285838a01611e7b565b8551918401916123038184848a01611e7b565b8554920191600090600181811c908083168061232057607f831692505b85831081141561233e57634e487b7160e01b85526022600452602485fd5b808015612352576001811461236357612390565b60ff19851688528388019550612390565b60008b81526020902060005b858110156123885781548a82015290840190880161236f565b505083880195505b50939b9a5050505050505050505050565b6001600160a01b03858116825284166020820152604081018390526080606082018190526000906123d490830184611ea7565b9695505050505050565b6000602082840312156123f057600080fd5b815161172b81611e18565b600060001982141561240f5761240f612259565b5060010190565b634e487b7160e01b600052601260045260246000fd5b60008261243b5761243b612416565b500490565b60008282101561245257612452612259565b500390565b60008261246657612466612416565b500690565b634e487b7160e01b600052603260045260246000fdfea26469706673582212203f63a68acd0ae555537e66eb706afa09bb2152aaaeb4df921a700c431c994ae764736f6c63430008090033",
  "linkReferences": {},
  "deployedLinkReferences": {}
}